{
  "contractName": "MyContract",
  "abi": [
    {
      "constant": true,
      "inputs": [
        {
          "name": "",
          "type": "uint256"
        }
      ],
      "name": "historiesIds",
      "outputs": [
        {
          "name": "",
          "type": "uint256"
        }
      ],
      "payable": false,
      "stateMutability": "view",
      "type": "function"
    },
    {
      "constant": true,
      "inputs": [
        {
          "name": "",
          "type": "uint256"
        }
      ],
      "name": "productsIds",
      "outputs": [
        {
          "name": "",
          "type": "uint256"
        }
      ],
      "payable": false,
      "stateMutability": "view",
      "type": "function"
    },
    {
      "constant": true,
      "inputs": [
        {
          "name": "",
          "type": "uint256"
        }
      ],
      "name": "stagesIds",
      "outputs": [
        {
          "name": "",
          "type": "uint256"
        }
      ],
      "payable": false,
      "stateMutability": "view",
      "type": "function"
    },
    {
      "constant": true,
      "inputs": [
        {
          "name": "",
          "type": "uint256"
        }
      ],
      "name": "productsInHistory",
      "outputs": [
        {
          "name": "",
          "type": "uint256"
        }
      ],
      "payable": false,
      "stateMutability": "view",
      "type": "function"
    },
    {
      "anonymous": false,
      "inputs": [
        {
          "indexed": false,
          "name": "_addr",
          "type": "address"
        },
        {
          "indexed": false,
          "name": "newEmail",
          "type": "string"
        }
      ],
      "name": "userRegisted",
      "type": "event"
    },
    {
      "anonymous": false,
      "inputs": [
        {
          "indexed": false,
          "name": "id",
          "type": "uint256"
        }
      ],
      "name": "productRegistered",
      "type": "event"
    },
    {
      "anonymous": false,
      "inputs": [
        {
          "indexed": false,
          "name": "",
          "type": "uint256[]"
        }
      ],
      "name": "StageRegistered",
      "type": "event"
    },
    {
      "anonymous": false,
      "inputs": [
        {
          "indexed": false,
          "name": "_msg",
          "type": "string"
        }
      ],
      "name": "historyRegistered",
      "type": "event"
    },
    {
      "anonymous": false,
      "inputs": [
        {
          "indexed": false,
          "name": "_productId",
          "type": "uint256"
        },
        {
          "indexed": false,
          "name": "_msg",
          "type": "string"
        }
      ],
      "name": "productUpdated",
      "type": "event"
    },
    {
      "constant": false,
      "inputs": [
        {
          "name": "_addr",
          "type": "address"
        },
        {
          "name": "_email",
          "type": "string"
        }
      ],
      "name": "setUser",
      "outputs": [],
      "payable": false,
      "stateMutability": "nonpayable",
      "type": "function"
    },
    {
      "constant": true,
      "inputs": [
        {
          "name": "_addr",
          "type": "address"
        }
      ],
      "name": "getUser",
      "outputs": [
        {
          "name": "",
          "type": "string"
        }
      ],
      "payable": false,
      "stateMutability": "view",
      "type": "function"
    },
    {
      "constant": false,
      "inputs": [
        {
          "name": "_nome",
          "type": "string"
        },
        {
          "name": "_endereco",
          "type": "string"
        },
        {
          "name": "_cpf",
          "type": "uint256"
        }
      ],
      "name": "addProduct",
      "outputs": [],
      "payable": false,
      "stateMutability": "nonpayable",
      "type": "function"
    },
    {
      "constant": false,
      "inputs": [
        {
          "name": "_productId",
          "type": "uint256"
        },
        {
          "name": "_newNome",
          "type": "string"
        },
        {
          "name": "_newEndereco",
          "type": "string"
        },
        {
          "name": "_newCpf",
          "type": "uint256"
        }
      ],
      "name": "updateProduct",
      "outputs": [],
      "payable": false,
      "stateMutability": "nonpayable",
      "type": "function"
    },
    {
      "constant": true,
      "inputs": [
        {
          "name": "_id",
          "type": "uint256"
        }
      ],
      "name": "productInfo",
      "outputs": [
        {
          "name": "",
          "type": "uint256"
        },
        {
          "name": "",
          "type": "string"
        },
        {
          "name": "",
          "type": "string"
        },
        {
          "name": "",
          "type": "address"
        },
        {
          "name": "",
          "type": "uint256"
        }
      ],
      "payable": false,
      "stateMutability": "view",
      "type": "function"
    },
    {
      "constant": true,
      "inputs": [],
      "name": "getProducts",
      "outputs": [
        {
          "name": "",
          "type": "uint256[]"
        },
        {
          "name": "",
          "type": "string[]"
        },
        {
          "name": "",
          "type": "string[]"
        },
        {
          "name": "",
          "type": "uint256[]"
        },
        {
          "name": "",
          "type": "address[]"
        }
      ],
      "payable": false,
      "stateMutability": "view",
      "type": "function"
    },
    {
      "constant": true,
      "inputs": [
        {
          "name": "_id",
          "type": "uint256"
        }
      ],
      "name": "isProductInHistory",
      "outputs": [
        {
          "name": "",
          "type": "bool"
        }
      ],
      "payable": false,
      "stateMutability": "view",
      "type": "function"
    },
    {
      "constant": false,
      "inputs": [
        {
          "name": "_productId",
          "type": "uint256"
        },
        {
          "name": "_stageDesc",
          "type": "string[]"
        },
        {
          "name": "_dates",
          "type": "string[]"
        }
      ],
      "name": "addNewHistory",
      "outputs": [],
      "payable": false,
      "stateMutability": "nonpayable",
      "type": "function"
    },
    {
      "constant": false,
      "inputs": [
        {
          "name": "_productId",
          "type": "uint256"
        },
        {
          "name": "_stageDesc",
          "type": "string[]"
        },
        {
          "name": "_dates",
          "type": "string[]"
        }
      ],
      "name": "addToHistory",
      "outputs": [
        {
          "name": "",
          "type": "bool"
        }
      ],
      "payable": false,
      "stateMutability": "nonpayable",
      "type": "function"
    },
    {
      "constant": true,
      "inputs": [
        {
          "name": "_id",
          "type": "uint256"
        }
      ],
      "name": "HistoryInfo",
      "outputs": [
        {
          "name": "",
          "type": "uint256"
        },
        {
          "name": "",
          "type": "string[]"
        },
        {
          "name": "",
          "type": "string[]"
        },
        {
          "name": "",
          "type": "address"
        }
      ],
      "payable": false,
      "stateMutability": "view",
      "type": "function"
    },
    {
      "constant": true,
      "inputs": [],
      "name": "getHistories",
      "outputs": [
        {
          "name": "",
          "type": "string[]"
        },
        {
          "name": "",
          "type": "string[][]"
        },
        {
          "name": "",
          "type": "string[][]"
        },
        {
          "name": "",
          "type": "address[]"
        }
      ],
      "payable": false,
      "stateMutability": "view",
      "type": "function"
    },
    {
      "constant": false,
      "inputs": [
        {
          "name": "_productsIds",
          "type": "uint256[]"
        },
        {
          "name": "_stageDesc",
          "type": "string"
        }
      ],
      "name": "addToStage",
      "outputs": [],
      "payable": false,
      "stateMutability": "nonpayable",
      "type": "function"
    },
    {
      "constant": true,
      "inputs": [
        {
          "name": "_id",
          "type": "uint256"
        }
      ],
      "name": "stageInfo",
      "outputs": [
        {
          "name": "",
          "type": "uint256"
        },
        {
          "name": "",
          "type": "uint256[]"
        },
        {
          "name": "",
          "type": "string"
        },
        {
          "name": "",
          "type": "address"
        }
      ],
      "payable": false,
      "stateMutability": "view",
      "type": "function"
    },
    {
      "constant": true,
      "inputs": [],
      "name": "getStages",
      "outputs": [
        {
          "name": "",
          "type": "uint256[]"
        },
        {
          "name": "",
          "type": "uint256[][]"
        },
        {
          "name": "",
          "type": "string[]"
        },
        {
          "name": "",
          "type": "address[]"
        }
      ],
      "payable": false,
      "stateMutability": "view",
      "type": "function"
    }
  ],
  "bytecode": "0x6080604052600060085560006009556000600a5534801561001f57600080fd5b5061355e8061002f6000396000f3fe6080604052600436106100fc576000357c0100000000000000000000000000000000000000000000000000000000900463ffffffff168063243af193146101015780632a0e7b6214610141578063362342e41461016f5780633f1a51b8146101ac5780636f77926b146101d5578063712611dd1461021257806379655bd01461024f57806384d5f4241461027d578063a227379c146102a6578063a2c0fb24146102cf578063bb119f6e1461030c578063c29b2f201461034d578063d9db17de1461037c578063e52c2eca146103bc578063e63007fb146103f9578063f28ea1c114610422578063f6881ca61461044b578063ffdc6a7a14610488575b600080fd5b34801561010d57600080fd5b5061012860048036036101239190810190612577565b6104c5565b604051610138949392919061319d565b60405180910390f35b34801561014d57600080fd5b506101566106c0565b6040516101669493929190612dd8565b60405180910390f35b34801561017b57600080fd5b5061019660048036036101919190810190612577565b61095a565b6040516101a3919061312f565b60405180910390f35b3480156101b857600080fd5b506101d360048036036101ce9190810190612438565b61097d565b005b3480156101e157600080fd5b506101fc60048036036101f7919081019061240f565b610a15565b6040516102099190612f4d565b60405180910390f35b34801561021e57600080fd5b5061023960048036036102349190810190612577565b610b1b565b604051610246919061312f565b60405180910390f35b34801561025b57600080fd5b50610264610b3e565b6040516102749493929190612e5b565b60405180910390f35b34801561028957600080fd5b506102a4600480360361029f91908101906125a0565b610d54565b005b3480156102b257600080fd5b506102cd60048036036102c8919081019061261f565b610f7c565b005b3480156102db57600080fd5b506102f660048036036102f19190810190612577565b611172565b604051610303919061312f565b60405180910390f35b34801561031857600080fd5b50610333600480360361032e9190810190612577565b611195565b6040516103449594939291906131f0565b60405180910390f35b34801561035957600080fd5b5061036261141e565b604051610373959493929190612ebc565b60405180910390f35b34801561038857600080fd5b506103a3600480360361039e9190810190612577565b61168b565b6040516103b3949392919061314a565b60405180910390f35b3480156103c857600080fd5b506103e360048036036103de9190810190612577565b61195e565b6040516103f0919061312f565b60405180910390f35b34801561040557600080fd5b50610420600480360361041b919081019061248c565b611981565b005b34801561042e57600080fd5b50610449600480360361044491908101906124f8565b611b66565b005b34801561045757600080fd5b50610472600480360361046d91908101906125a0565b611da3565b60405161047f9190612f32565b60405180910390f35b34801561049457600080fd5b506104af60048036036104aa9190810190612577565b611eca565b6040516104bc9190612f32565b60405180910390f35b600060608060006009548511151515610513576040517f08c379a000000000000000000000000000000000000000000000000000000000815260040161050a90612fcf565b60405180910390fd5b61051b611f22565b6002600087815260200190815260200160002060806040519081016040529081600082015481526020016001820180548060200260200160405190810160405280929190818152602001828054801561059357602002820191906000526020600020905b81548152602001906001019080831161057f575b50505050508152602001600282018054600181600116156101000203166002900480601f0160208091040260200160405190810160405280929190818152602001828054600181600116156101000203166002900480156106355780601f1061060a57610100808354040283529160200191610635565b820191906000526020600020905b81548152906001019060200180831161061857829003601f168201915b505050505081526020016003820160009054906101000a900473ffffffffffffffffffffffffffffffffffffffff1673ffffffffffffffffffffffffffffffffffffffff1673ffffffffffffffffffffffffffffffffffffffff1681525050905080600001518160200151826040015183606001518292508191509450945094509450509193509193565b6060806060806060600580548060200260200160405190810160405280929190818152602001828054801561071457602002820191906000526020600020905b815481526020019060010190808311610700575b505050505090506060815160405190808252806020026020018201604052801561074d5781602001602082028038833980820191505090505b5090506060825160405190808252806020026020018201604052801561078757816020015b60608152602001906001900390816107725790505b509050606083516040519080825280602002602001820160405280156107c157816020015b60608152602001906001900390816107ac5790505b509050606084516040519080825280602002602001820160405280156107fb57816020015b60608152602001906001900390816107e65790505b509050606085516040519080825280602002602001820160405280156108305781602001602082028038833980820191505090505b50905060008090505b86518110156109415761084b8161168b565b829250819150898581518110151561085f57fe5b906020019060200201888681518110151561087657fe5b906020019060200201888781518110151561088d57fe5b90602001906020020188888151811015156108a457fe5b9060200190602002018473ffffffffffffffffffffffffffffffffffffffff1673ffffffffffffffffffffffffffffffffffffffff16815250849052849052848152505050505061090b86828151811015156108fc57fe5b90602001906020020151611195565b9091929350839350909150905050858281518110151561092757fe5b906020019060200201819052508080600101915050610839565b5083838383995099509950995050505050505090919293565b60058181548110151561096957fe5b906000526020600020016000915090505481565b6000600760008473ffffffffffffffffffffffffffffffffffffffff1673ffffffffffffffffffffffffffffffffffffffff1681526020019081526020016000209050818160000190805190602001906109d8929190611f61565b507fac6ec2f3cde22b84535f0bb70aa5a3d4e365af8847b387e4598b86913b19bab583604051610a089190612daa565b60405180910390a1505050565b6060610a1f611fe1565b600760008473ffffffffffffffffffffffffffffffffffffffff1673ffffffffffffffffffffffffffffffffffffffff16815260200190815260200160002060206040519081016040529081600082018054600181600116156101000203166002900480601f016020809104026020016040519081016040528092919081815260200182805460018160011615610100020316600290048015610b035780601f10610ad857610100808354040283529160200191610b03565b820191906000526020600020905b815481529060010190602001808311610ae657829003601f168201915b50505050508152505090508060000151915050919050565b600181815481101515610b2a57fe5b906000526020600020016000915090505481565b60608060608060606003805480602002602001604051908101604052809291908181526020018280548015610b9257602002820191906000526020600020905b815481526020019060010190808311610b7e575b5050505050905060608151604051908082528060200260200182016040528015610bcb5781602001602082028038833980820191505090505b50905060608251604051908082528060200260200182016040528015610c0557816020015b6060815260200190600190039081610bf05790505b50905060608351604051908082528060200260200182016040528015610c3f57816020015b6060815260200190600190039081610c2a5790505b50905060608451604051908082528060200260200182016040528015610c745781602001602082028038833980820191505090505b50905060008090505b8551811015610d3c57610c8f816104c5565b8292508191508885815181101515610ca357fe5b9060200190602002018886815181101515610cba57fe5b9060200190602002018887815181101515610cd157fe5b9060200190602002018888815181101515610ce857fe5b9060200190602002018473ffffffffffffffffffffffffffffffffffffffff1673ffffffffffffffffffffffffffffffffffffffff1681525084905284905284815250505050508080600101915050610c7d565b50848383839850985098509850505050505090919293565b60008310151515610d9a576040517f08c379a0000000000000000000000000000000000000000000000000000000008152600401610d91906130af565b60405180910390fd5b610da383611eca565b1515610f2a576080604051908101604052808481526020018381526020018281526020013373ffffffffffffffffffffffffffffffffffffffff1681525060046000600a548152602001908152602001600020600082015181600001556020820151816001019080519060200190610e1c929190611ff5565b506040820151816002019080519060200190610e39929190611ff5565b5060608201518160030160006101000a81548173ffffffffffffffffffffffffffffffffffffffff021916908373ffffffffffffffffffffffffffffffffffffffff1602179055509050506005600a5490806001815401808255809150509060018203906000526020600020016000909192909190915055506006839080600181540180825580915050906001820390600052602060002001600090919290919091505550600a600081548092919060010191905055507f85df17fa01db593cbf895b0165756515b33fb56e9d3e9af14eb737541265b236604051610f1d9061304f565b60405180910390a1610f77565b6000610f37848484611da3565b90508015610f75577f85df17fa01db593cbf895b0165756515b33fb56e9d3e9af14eb737541265b236604051610f6c9061304f565b60405180910390a15b505b505050565b6001835110151515610fc3576040517f08c379a0000000000000000000000000000000000000000000000000000000008152600401610fba9061302f565b60405180910390fd5b600182511015151561100a576040517f08c379a0000000000000000000000000000000000000000000000000000000008152600401611001906130cf565b60405180910390fd5b60008111151561104f576040517f08c379a00000000000000000000000000000000000000000000000000000000081526004016110469061310f565b60405180910390fd5b600080600086815260200190815260200160002090503373ffffffffffffffffffffffffffffffffffffffff168160040160009054906101000a900473ffffffffffffffffffffffffffffffffffffffff1673ffffffffffffffffffffffffffffffffffffffff161415156110f9576040517f08c379a00000000000000000000000000000000000000000000000000000000081526004016110f090612fef565b60405180910390fd5b83816001019080519060200190611111929190611f61565b508281600201908051906020019061112a929190611f61565b508181600301819055507f2502003daf5012f303aa6e68dcd311abe54ba3b5afe1c5721ae2ff76e3e85edf856040516111639190613251565b60405180910390a15050505050565b60038181548110151561118157fe5b906000526020600020016000915090505481565b600060608060008060085486111515156111e4576040517f08c379a00000000000000000000000000000000000000000000000000000000081526004016111db90612f6f565b60405180910390fd5b6111ec612055565b60008088815260200190815260200160002060a0604051908101604052908160008201548152602001600182018054600181600116156101000203166002900480601f0160208091040260200160405190810160405280929190818152602001828054600181600116156101000203166002900480156112ad5780601f10611282576101008083540402835291602001916112ad565b820191906000526020600020905b81548152906001019060200180831161129057829003601f168201915b50505050508152602001600282018054600181600116156101000203166002900480601f01602080910402602001604051908101604052809291908181526020018280546001816001161561010002031660029004801561134f5780601f106113245761010080835404028352916020019161134f565b820191906000526020600020905b81548152906001019060200180831161133257829003601f168201915b50505050508152602001600382015481526020016004820160009054906101000a900473ffffffffffffffffffffffffffffffffffffffff1673ffffffffffffffffffffffffffffffffffffffff1673ffffffffffffffffffffffffffffffffffffffff168152505090508060000151816020015182604001516000808b815260200190815260200160002060040160009054906101000a900473ffffffffffffffffffffffffffffffffffffffff168460600151839350829250955095509550955095505091939590929450565b606080606080606080600180548060200260200160405190810160405280929190818152602001828054801561147357602002820191906000526020600020905b81548152602001906001019080831161145f575b50505050509050606081516040519080825280602002602001820160405280156114ac5781602001602082028038833980820191505090505b509050606082516040519080825280602002602001820160405280156114e657816020015b60608152602001906001900390816114d15790505b5090506060835160405190808252806020026020018201604052801561152057816020015b606081526020019060019003908161150b5790505b509050606084516040519080825280602002602001820160405280156115555781602001602082028038833980820191505090505b5090506060855160405190808252806020026020018201604052801561158a5781602001602082028038833980820191505090505b50905060008090505b865181101561166e576115a581611195565b8393508292508a868151811015156115b957fe5b9060200190602002018a878151811015156115d057fe5b9060200190602002018a888151811015156115e757fe5b90602001906020020189898151811015156115fe57fe5b9060200190602002018b8a81518110151561161557fe5b906020019060200201858152508573ffffffffffffffffffffffffffffffffffffffff1673ffffffffffffffffffffffffffffffffffffffff168152508590528590528581525050505050508080600101915050611593565b5084848484849a509a509a509a509a505050505050509091929394565b60006060806000600a5485111515156116d9576040517f08c379a00000000000000000000000000000000000000000000000000000000081526004016116d09061306f565b60405180910390fd5b6116e161209b565b60046000878152602001908152602001600020608060405190810160405290816000820154815260200160018201805480602002602001604051908101604052809291908181526020016000905b828210156117eb578382906000526020600020018054600181600116156101000203166002900480601f0160208091040260200160405190810160405280929190818152602001828054600181600116156101000203166002900480156117d75780601f106117ac576101008083540402835291602001916117d7565b820191906000526020600020905b8154815290600101906020018083116117ba57829003601f168201915b50505050508152602001906001019061172f565b50505050815260200160028201805480602002602001604051908101604052809291908181526020016000905b828210156118d4578382906000526020600020018054600181600116156101000203166002900480601f0160208091040260200160405190810160405280929190818152602001828054600181600116156101000203166002900480156118c05780601f10611895576101008083540402835291602001916118c0565b820191906000526020600020905b8154815290600101906020018083116118a357829003601f168201915b505050505081526020019060010190611818565b5050505081526020016003820160009054906101000a900473ffffffffffffffffffffffffffffffffffffffff1673ffffffffffffffffffffffffffffffffffffffff1673ffffffffffffffffffffffffffffffffffffffff1681525050905080600001518160200151826040015183606001518292508191509450945094509450509193509193565b60068181548110151561196d57fe5b906000526020600020016000915090505481565b60018151101515156119c8576040517f08c379a00000000000000000000000000000000000000000000000000000000081526004016119bf9061300f565b60405180910390fd5b60008251111515611a0e576040517f08c379a0000000000000000000000000000000000000000000000000000000008152600401611a0590612f8f565b60405180910390fd5b60806040519081016040528060095481526020018381526020018281526020013373ffffffffffffffffffffffffffffffffffffffff16815250600260006009548152602001908152602001600020600082015181600001556020820151816001019080519060200190611a839291906120da565b506040820151816002019080519060200190611aa0929190612127565b5060608201518160030160006101000a81548173ffffffffffffffffffffffffffffffffffffffff021916908373ffffffffffffffffffffffffffffffffffffffff160217905550905050600360095490806001815401808255809150509060018203906000526020600020016000909192909190915055506009600081548092919060010191905055507f4cc60a5ec8fb5bfb3ec397505a58e8cea4d91a7e74b9e01611588ad65c20bbe282604051611b5a9190612e39565b60405180910390a15050565b6001835110151515611bad576040517f08c379a0000000000000000000000000000000000000000000000000000000008152600401611ba49061308f565b60405180910390fd5b6001825110151515611bf4576040517f08c379a0000000000000000000000000000000000000000000000000000000008152600401611beb90612faf565b60405180910390fd5b600081111515611c39576040517f08c379a0000000000000000000000000000000000000000000000000000000008152600401611c30906130ef565b60405180910390fd5b60a06040519081016040528060085481526020018481526020018381526020018281526020013373ffffffffffffffffffffffffffffffffffffffff168152506000806008548152602001908152602001600020600082015181600001556020820151816001019080519060200190611cb3929190612127565b506040820151816002019080519060200190611cd0929190612127565b506060820151816003015560808201518160040160006101000a81548173ffffffffffffffffffffffffffffffffffffffff021916908373ffffffffffffffffffffffffffffffffffffffff160217905550905050600160085490806001815401808255809150509060018203906000526020600020016000909192909190915055506008600081548092919060010191905055507fa0ecd9c452dc8233eea5ff75c2be4760d1cd2ff3edd236618fbe6403dc07c48a600854604051611d96919061312f565b60405180910390a1505050565b600080600580549050905060008090505b81811015611ebc578560046000838152602001908152602001600020600001541415611eaf57600060046000838152602001908152602001600020905080600101866000815181101515611e0457fe5b906020019060200201519080600181540180825580915050906001820390600052602060002001600090919290919091509080519060200190611e48929190611f61565b505080600201856000815181101515611e5d57fe5b906020019060200201519080600181540180825580915050906001820390600052602060002001600090919290919091509080519060200190611ea1929190611f61565b505060019350505050611ec3565b8080600101915050611db4565b5060009150505b9392505050565b600080600090505b600680549050811015611f175782600682815481101515611eef57fe5b90600052602060002001541415611f0a576001915050611f1d565b8080600101915050611ed2565b50600090505b919050565b608060405190810160405280600081526020016060815260200160608152602001600073ffffffffffffffffffffffffffffffffffffffff1681525090565b828054600181600116156101000203166002900490600052602060002090601f016020900481019282601f10611fa257805160ff1916838001178555611fd0565b82800160010185558215611fd0579182015b82811115611fcf578251825591602001919060010190611fb4565b5b509050611fdd91906121a7565b5090565b602060405190810160405280606081525090565b828054828255906000526020600020908101928215612044579160200282015b82811115612043578251829080519060200190612033929190612127565b5091602001919060010190612015565b5b50905061205191906121cc565b5090565b60a06040519081016040528060008152602001606081526020016060815260200160008152602001600073ffffffffffffffffffffffffffffffffffffffff1681525090565b608060405190810160405280600081526020016060815260200160608152602001600073ffffffffffffffffffffffffffffffffffffffff1681525090565b828054828255906000526020600020908101928215612116579160200282015b828111156121155782518255916020019190600101906120fa565b5b50905061212391906121a7565b5090565b828054600181600116156101000203166002900490600052602060002090601f016020900481019282601f1061216857805160ff1916838001178555612196565b82800160010185558215612196579182015b8281111561219557825182559160200191906001019061217a565b5b5090506121a391906121a7565b5090565b6121c991905b808211156121c55760008160009055506001016121ad565b5090565b90565b6121f591905b808211156121f157600081816121e891906121f8565b506001016121d2565b5090565b90565b50805460018160011615610100020316600290046000825580601f1061221e575061223d565b601f01602090049060005260206000209081019061223c91906121a7565b5b50565b600061224c82356134b5565b905092915050565b600082601f830112151561226757600080fd5b813561227a612275826132ac565b61327f565b9150818183526020840193506020810190508360005b838110156122c057813586016122a6888261234f565b845260208401935060208301925050600181019050612290565b5050505092915050565b600082601f83011215156122dd57600080fd5b81356122f06122eb826132d4565b61327f565b9150818183526020840193506020810190508385602084028201111561231557600080fd5b60005b83811015612345578161232b88826123fb565b845260208401935060208301925050600181019050612318565b5050505092915050565b600082601f830112151561236257600080fd5b8135612375612370826132fc565b61327f565b9150808252602083016020830185838301111561239157600080fd5b61239c8382846134d1565b50505092915050565b600082601f83011215156123b857600080fd5b81356123cb6123c682613328565b61327f565b915080825260208301602083018583830111156123e757600080fd5b6123f28382846134d1565b50505092915050565b600061240782356134c7565b905092915050565b60006020828403121561242157600080fd5b600061242f84828501612240565b91505092915050565b6000806040838503121561244b57600080fd5b600061245985828601612240565b925050602083013567ffffffffffffffff81111561247657600080fd5b612482858286016123a5565b9150509250929050565b6000806040838503121561249f57600080fd5b600083013567ffffffffffffffff8111156124b957600080fd5b6124c5858286016122ca565b925050602083013567ffffffffffffffff8111156124e257600080fd5b6124ee858286016123a5565b9150509250929050565b60008060006060848603121561250d57600080fd5b600084013567ffffffffffffffff81111561252757600080fd5b612533868287016123a5565b935050602084013567ffffffffffffffff81111561255057600080fd5b61255c868287016123a5565b925050604061256d868287016123fb565b9150509250925092565b60006020828403121561258957600080fd5b6000612597848285016123fb565b91505092915050565b6000806000606084860312156125b557600080fd5b60006125c3868287016123fb565b935050602084013567ffffffffffffffff8111156125e057600080fd5b6125ec86828701612254565b925050604084013567ffffffffffffffff81111561260957600080fd5b61261586828701612254565b9150509250925092565b6000806000806080858703121561263557600080fd5b6000612643878288016123fb565b945050602085013567ffffffffffffffff81111561266057600080fd5b61266c878288016123a5565b935050604085013567ffffffffffffffff81111561268957600080fd5b612695878288016123a5565b92505060606126a6878288016123fb565b91505092959194509250565b6126bb8161346d565b82525050565b60006126cc826133af565b8084526020840193506126de83613354565b60005b82811015612710576126f48683516126b2565b6126fd82613412565b91506020860195506001810190506126e1565b50849250505092915050565b6000612727826133ba565b8084526020840193508360208202850161274085613361565b60005b8481101561277957838303885261275b838351612866565b92506127668261341f565b9150602088019750600181019050612743565b508196508694505050505092915050565b6000612795826133c5565b808452602084019350836020820285016127ae8561336e565b60005b848110156127e75783830388526127c983835161292f565b92506127d48261342c565b91506020880197506001810190506127b1565b508196508694505050505092915050565b6000612803826133db565b8084526020840193508360208202850161281c85613388565b60005b848110156128555783830388526128378383516129cf565b925061284282613446565b915060208801975060018101905061281f565b508196508694505050505092915050565b6000612871826133d0565b8084526020840193508360208202850161288a8561337b565b60005b848110156128c35783830388526128a58383516129cf565b92506128b082613439565b915060208801975060018101905061288d565b508196508694505050505092915050565b60006128df826133f1565b8084526020840193506128f1836133a2565b60005b8281101561292357612907868351612d9b565b61291082613460565b91506020860195506001810190506128f4565b50849250505092915050565b600061293a826133e6565b80845260208401935061294c83613395565b60005b8281101561297e57612962868351612d9b565b61296b82613453565b915060208601955060018101905061294f565b50849250505092915050565b6129938161347f565b82525050565b60006129a482613407565b8084526129b88160208601602086016134e0565b6129c181613513565b602085010191505092915050565b60006129da826133fc565b8084526129ee8160208601602086016134e0565b6129f781613513565b602085010191505092915050565b6000601682527f50726f6475637420646f6573206e6f74206578697374000000000000000000006020830152604082019050919050565b6000601e82527f5072696365206d75737420626520686967686572207468616e207a65726f00006020830152604082019050919050565b6000601182527f456e64657265636f20696e76616c69646f0000000000000000000000000000006020830152604082019050919050565b6000601c82527f50726f6475637420737461676520646f6573206e6f74206578697374000000006020830152604082019050919050565b6000602582527f4f6e6c7920746865206f776e65722063616e207570646174652074686520707260208301527f6f647563740000000000000000000000000000000000000000000000000000006040830152606082019050919050565b6000600c82527f4e616d6520696e76616c696400000000000000000000000000000000000000006020830152604082019050919050565b6000601f82527f50726f6475746f20617475616c697a61646f20636f6d20737563636573736f006020830152604082019050919050565b6000601282527f4e6f6d65206e6f766f20696e76616c69646f00000000000000000000000000006020830152604082019050919050565b6000600e82527f486973746f7279207361766564210000000000000000000000000000000000006020830152604082019050919050565b6000601682527f486973746f727920646f6573206e6f74206578697374000000000000000000006020830152604082019050919050565b6000600d82527f4e6f6d6520696e76616c69646f000000000000000000000000000000000000006020830152604082019050919050565b6000601182527f696e76616c69642070726f6475637449640000000000000000000000000000006020830152604082019050919050565b6000601682527f456e64657265636f206e6f766f20696e76616c69646f000000000000000000006020830152604082019050919050565b6000600c82527f43504620696e76616c69646f00000000000000000000000000000000000000006020830152604082019050919050565b6000601182527f436f6e74612072656769737472616461210000000000000000000000000000006020830152604082019050919050565b6000601182527f435046206e6f766f20696e76616c69646f0000000000000000000000000000006020830152604082019050919050565b612da4816134ab565b82525050565b6000604082019050612dbf60008301846126b2565b8181036020830152612dd081612d2d565b905092915050565b60006080820190508181036000830152612df281876127f8565b90508181036020830152612e06818661271c565b90508181036040830152612e1a818561271c565b90508181036060830152612e2e81846126c1565b905095945050505050565b60006020820190508181036000830152612e5381846128d4565b905092915050565b60006080820190508181036000830152612e7581876128d4565b90508181036020830152612e89818661278a565b90508181036040830152612e9d81856127f8565b90508181036060830152612eb181846126c1565b905095945050505050565b600060a0820190508181036000830152612ed681886128d4565b90508181036020830152612eea81876127f8565b90508181036040830152612efe81866127f8565b90508181036060830152612f1281856128d4565b90508181036080830152612f2681846126c1565b90509695505050505050565b6000602082019050612f47600083018461298a565b92915050565b60006020820190508181036000830152612f678184612999565b905092915050565b60006020820190508181036000830152612f8881612a05565b9050919050565b60006020820190508181036000830152612fa881612a3c565b9050919050565b60006020820190508181036000830152612fc881612a73565b9050919050565b60006020820190508181036000830152612fe881612aaa565b9050919050565b6000602082019050818103600083015261300881612ae1565b9050919050565b6000602082019050818103600083015261302881612b3e565b9050919050565b6000602082019050818103600083015261304881612bac565b9050919050565b6000602082019050818103600083015261306881612be3565b9050919050565b6000602082019050818103600083015261308881612c1a565b9050919050565b600060208201905081810360008301526130a881612c51565b9050919050565b600060208201905081810360008301526130c881612c88565b9050919050565b600060208201905081810360008301526130e881612cbf565b9050919050565b6000602082019050818103600083015261310881612cf6565b9050919050565b6000602082019050818103600083015261312881612d64565b9050919050565b60006020820190506131446000830184612d9b565b92915050565b600060808201905061315f6000830187612d9b565b818103602083015261317181866127f8565b9050818103604083015261318581856127f8565b905061319460608301846126b2565b95945050505050565b60006080820190506131b26000830187612d9b565b81810360208301526131c481866128d4565b905081810360408301526131d88185612999565b90506131e760608301846126b2565b95945050505050565b600060a0820190506132056000830188612d9b565b81810360208301526132178187612999565b9050818103604083015261322b8186612999565b905061323a60608301856126b2565b6132476080830184612d9b565b9695505050505050565b60006040820190506132666000830184612d9b565b818103602083015261327781612b75565b905092915050565b6000604051905081810181811067ffffffffffffffff821117156132a257600080fd5b8060405250919050565b600067ffffffffffffffff8211156132c357600080fd5b602082029050602081019050919050565b600067ffffffffffffffff8211156132eb57600080fd5b602082029050602081019050919050565b600067ffffffffffffffff82111561331357600080fd5b601f19601f8301169050602081019050919050565b600067ffffffffffffffff82111561333f57600080fd5b601f19601f8301169050602081019050919050565b6000602082019050919050565b6000602082019050919050565b6000602082019050919050565b6000602082019050919050565b6000602082019050919050565b6000602082019050919050565b6000602082019050919050565b600081519050919050565b600081519050919050565b600081519050919050565b600081519050919050565b600081519050919050565b600081519050919050565b600081519050919050565b600081519050919050565b600081519050919050565b6000602082019050919050565b6000602082019050919050565b6000602082019050919050565b6000602082019050919050565b6000602082019050919050565b6000602082019050919050565b6000602082019050919050565b60006134788261348b565b9050919050565b60008115159050919050565b600073ffffffffffffffffffffffffffffffffffffffff82169050919050565b6000819050919050565b60006134c08261348b565b9050919050565b6000819050919050565b82818337600083830152505050565b60005b838110156134fe5780820151818401526020810190506134e3565b8381111561350d576000848401525b50505050565b6000601f19601f830116905091905056fea265627a7a723058207ceba37a0b72ee15dccf928f0af673941bacc8fdeddb52ce10376064cb3804116c6578706572696d656e74616cf50037",
  "source": "pragma solidity ^0.5.0;\npragma experimental ABIEncoderV2;\n\ncontract MyContract {\n\n    // evento para notificar o cliente que a conta foi atualizada\n    event userRegisted(address _addr, string newEmail);\n    // evento para notificar o cliente que o produto foi registrado\n    event productRegistered(uint id);\n    // evento para notificar o cliente de que a Etapa foi registrada\n    event StageRegistered(uint[]);\n    // evento para notificar o cliente de que um histrico foi registrado\n    event historyRegistered(string _msg);\n    // evento para notificar o cliente de que um produto foi atualizado\n    event productUpdated(uint _productId, string _msg);\n\n    // estrutura para manter dados do usurio\n    struct User {\n        string email;\n    }\n\n    // estrutura para registar o estagio de um produto\n    struct Stage {\n        uint id;\n        uint[] products;\n        string desc;\n        address owner;\n    }\n\n    // estrutura para manter dados do produto\n    struct Product {\n        uint id;\n        string nome;\n        string endereco;\n        uint cpf;\n        address owner;\n    }\n\n    // estrutura para manter dados de um histrico\n    struct History {\n        uint productId;\n        string[] stageDesc;\n        string[] dates;\n        address productOwner;\n    }\n\n    // mapeia um id a um produto\n    mapping (uint => Product) products;\n    uint[] public productsIds;\n\n    // mapeia um id a uma etapa\n    mapping(uint => Stage) stages;\n    uint[] public stagesIds;\n\n    mapping (uint => History) histories;\n    uint[] public historiesIds;\n    uint[] public productsInHistory;\n\n    // mapeia endereo do usurio a sua estrutura\n    mapping (address => User) users;\n\n    // state variables\n    uint256 private lastId = 0;\n    uint256 private stagesId = 0;\n    uint256 private historyId = 0;\n\n    // funo para cadastrar conta do usurio\n    function setUser(address _addr, string memory _email) public {\n        User storage user = users[_addr];\n        user.email = _email;\n\n        // notifica o cliente atravs do evento\n        emit userRegisted(_addr, \"Conta registrada!\");\n    }\n\n    // funo para resgatar dados do usurio\n    function getUser(address _addr) public view returns(string memory) {\n        User memory user = users[_addr];\n        return (user.email);\n    }\n\n    // funo para cadastrar um produto\n    function addProduct(string memory _nome, string memory _endereco, uint _cpf) public {\n        require(bytes(_nome).length >= 1, \"Nome invalido\");\n        require(bytes(_endereco).length >= 1, \"Endereco invalido\");\n        require(_cpf > 0, \"CPF invalido\");\n\n        products[lastId] = Product(lastId, _nome, _endereco, _cpf, msg.sender);\n        productsIds.push(lastId);\n        lastId++;\n        emit productRegistered(lastId);\n    }\n\n    function updateProduct(uint _productId, string memory _newNome, string memory _newEndereco, uint _newCpf) public {\n        require(bytes(_newNome).length >= 1, \"Nome novo invalido\");\n        require(bytes(_newEndereco).length >= 1, \"Endereco novo invalido\");\n        require(_newCpf > 0, \"CPF novo invalido\");\n\n        Product storage prod = products[_productId];\n\n        require(prod.owner == msg.sender, \"Only the owner can update the product\");\n        prod.nome = _newNome;\n        prod.endereco = _newEndereco;\n        prod.cpf = _newCpf;\n\n        emit productUpdated(_productId, \"Produto atualizado com successo\");\n    }\n\n    // funo para resgatar info de um produto\n    function productInfo(uint _id) public view\n        returns(\n            uint,\n            string memory,\n            string memory,\n            address,\n            uint\n        ) {\n            require(_id <= lastId, \"Product does not exist\");\n\n            Product memory product = products[_id];\n\n            return (\n                product.id,\n                product.nome,\n                product.endereco,\n                products[_id].owner,\n                product.cpf\n            );\n    }\n\n    // funo que retorna todos os produtos de um usurio\n    function getProducts() public view returns(uint[] memory, string[] memory, string[] memory, uint[] memory, address[] memory) {\n\n        uint[] memory ids = productsIds;\n\n        uint[] memory idsProducts = new uint[](ids.length);\n        string[] memory nomes = new string[](ids.length);\n        string[] memory enderecos = new string[](ids.length);\n        uint[] memory cpfs = new uint[](ids.length);\n        address[] memory owners = new address[](ids.length);\n\n        for (uint i = 0; i < ids.length; i++) {\n            (idsProducts[i], nomes[i], enderecos[i], owners[i], cpfs[i]) = productInfo(i);\n        }\n\n        return (idsProducts, nomes, enderecos, cpfs, owners);\n    }\n\n    function isProductInHistory(uint _id) public view returns (bool) {\n        for (uint i = 0; i < productsInHistory.length; i++) {\n            if (productsInHistory[i] == _id)\n                return true;\n        }\n        return false;\n    }\n\n    // funo para adicionar o histrico de um produto\n    function addNewHistory(uint _productId, string[] memory _stageDesc, string[] memory _dates) public {\n        require(_productId >= 0, \"invalid productId\");\n\n        if (!isProductInHistory(_productId)) {\n            histories[historyId] = History(_productId, _stageDesc, _dates, msg.sender);\n            historiesIds.push(historyId);\n            productsInHistory.push(_productId);\n            historyId++;\n            emit historyRegistered(\"History saved!\");\n        } else {\n            bool added = addToHistory(_productId, _stageDesc, _dates);\n            if (added) {\n                emit historyRegistered(\"History saved!\");\n            }\n        }\n    }\n\n    function addToHistory(uint _productId, string[] memory _stageDesc, string[] memory _dates) public returns (bool) {\n        uint size = historiesIds.length;\n        for (uint i = 0; i < size; i++) {\n            if (histories[i].productId == _productId) {\n                History storage his = histories[i];\n                his.stageDesc.push(_stageDesc[0]);\n                his.dates.push(_dates[0]);\n                return true;\n            }\n        }\n        return false;\n    }\n\n    function HistoryInfo(uint _id) public view returns (uint, string[] memory, string[] memory, address) {\n        require(_id <= historyId, \"History does not exist\");\n\n        History memory his = histories[_id];\n        return (\n            his.productId,\n            his.stageDesc,\n            his.dates,\n            his.productOwner\n        );\n    }\n\n    function getHistories() public view returns (string[] memory, string[][] memory, string[][] memory, address[] memory) {\n        uint[] memory ids = historiesIds;\n\n        uint[] memory prodsIds = new uint[](ids.length);\n        string[] memory productsNames = new string[](ids.length);\n        string[][] memory stageDesc = new string[][](ids.length);\n        string[][] memory dates = new string[][](ids.length);\n        address[] memory addrs = new address[](ids.length);\n\n        for (uint i = 0; i < ids.length; i++) {\n            (prodsIds[i], stageDesc[i], dates[i], addrs[i]) = HistoryInfo(i);\n            (, productsNames[i], , ,) = productInfo(prodsIds[i]);\n        }\n\n        return (productsNames, stageDesc, dates, addrs);\n    }\n\n    // funo para adicionar produtos  um estgio\n    function addToStage(uint[] memory _productsIds, string memory _stageDesc) public {\n        require(bytes(_stageDesc).length >= 1, \"Name invalid\");\n        require(_productsIds.length > 0, \"Price must be higher than zero\");\n\n        stages[stagesId] = Stage(stagesId, _productsIds, _stageDesc, msg.sender);\n        stagesIds.push(stagesId);\n        stagesId++;\n\n        emit StageRegistered(_productsIds);\n    }\n\n    // funo para resgatar info de um estgio\n    function stageInfo(uint _id) public view returns (uint, uint[] memory, string memory, address) {\n        require(_id <= stagesId, \"Product stage does not exist\");\n\n        Stage memory stage = stages[_id];\n        return (stage.id, stage.products, stage.desc, stage.owner);\n    }\n\n    // funo que retorna todos os produtos de um usurio\n    function getStages() public view returns (uint[] memory, uint[][] memory, string[] memory, address[] memory) {\n\n        uint[] memory ids = stagesIds;\n        uint[] memory idsStages = new uint[](ids.length);\n        uint[][] memory prods = new uint[][](ids.length);\n        string[] memory prods_desc = new string[](ids.length);\n        address[] memory owners = new address[](ids.length);\n\n        for(uint i = 0; i < ids.length; i++) {\n            (idsStages[i], prods[i], prods_desc[i], owners[i]) = stageInfo(i);\n        }\n\n        return (ids, prods, prods_desc, owners);\n    }\n\n}",
  "sourcePath": "/var/opt/iesb-blockchain/dapp/contracts/MyContract.sol",
  "compiler": {
    "name": "solc",
    "version": "0.5.0+commit.1d4f565a.Emscripten.clang"
  },
  "schemaVersion": "3.0.11",
  "updatedAt": "2019-07-07T23:49:45.872Z",
  "devdoc": {
    "methods": {}
  },
  "userdoc": {
    "methods": {}
  }
}