{
  "contractName": "MyContract",
  "abi": [
    {
      "constant": true,
      "inputs": [
        {
          "name": "",
          "type": "uint256"
        }
      ],
      "name": "historiesIds",
      "outputs": [
        {
          "name": "",
          "type": "uint256"
        }
      ],
      "payable": false,
      "stateMutability": "view",
      "type": "function"
    },
    {
      "constant": true,
      "inputs": [
        {
          "name": "",
          "type": "uint256"
        }
      ],
      "name": "productsIds",
      "outputs": [
        {
          "name": "",
          "type": "uint256"
        }
      ],
      "payable": false,
      "stateMutability": "view",
      "type": "function"
    },
    {
      "constant": true,
      "inputs": [
        {
          "name": "",
          "type": "uint256"
        }
      ],
      "name": "stagesIds",
      "outputs": [
        {
          "name": "",
          "type": "uint256"
        }
      ],
      "payable": false,
      "stateMutability": "view",
      "type": "function"
    },
    {
      "constant": true,
      "inputs": [
        {
          "name": "",
          "type": "uint256"
        }
      ],
      "name": "productsInHistory",
      "outputs": [
        {
          "name": "",
          "type": "uint256"
        }
      ],
      "payable": false,
      "stateMutability": "view",
      "type": "function"
    },
    {
      "anonymous": false,
      "inputs": [
        {
          "indexed": false,
          "name": "_addr",
          "type": "address"
        },
        {
          "indexed": false,
          "name": "newEmail",
          "type": "string"
        }
      ],
      "name": "userRegisted",
      "type": "event"
    },
    {
      "anonymous": false,
      "inputs": [
        {
          "indexed": false,
          "name": "id",
          "type": "uint256"
        }
      ],
      "name": "productRegistered",
      "type": "event"
    },
    {
      "anonymous": false,
      "inputs": [
        {
          "indexed": false,
          "name": "",
          "type": "uint256[]"
        }
      ],
      "name": "StageRegistered",
      "type": "event"
    },
    {
      "anonymous": false,
      "inputs": [
        {
          "indexed": false,
          "name": "_msg",
          "type": "string"
        }
      ],
      "name": "historyRegistered",
      "type": "event"
    },
    {
      "anonymous": false,
      "inputs": [
        {
          "indexed": false,
          "name": "_productId",
          "type": "uint256"
        },
        {
          "indexed": false,
          "name": "_msg",
          "type": "string"
        }
      ],
      "name": "productUpdated",
      "type": "event"
    },
    {
      "constant": false,
      "inputs": [
        {
          "name": "_addr",
          "type": "address"
        },
        {
          "name": "_email",
          "type": "string"
        }
      ],
      "name": "setUser",
      "outputs": [],
      "payable": false,
      "stateMutability": "nonpayable",
      "type": "function"
    },
    {
      "constant": true,
      "inputs": [
        {
          "name": "_addr",
          "type": "address"
        }
      ],
      "name": "getUser",
      "outputs": [
        {
          "name": "",
          "type": "string"
        }
      ],
      "payable": false,
      "stateMutability": "view",
      "type": "function"
    },
    {
      "constant": false,
      "inputs": [
        {
          "name": "_desc",
          "type": "string"
        },
        {
          "name": "_price",
          "type": "uint256"
        }
      ],
      "name": "addProduct",
      "outputs": [],
      "payable": false,
      "stateMutability": "nonpayable",
      "type": "function"
    },
    {
      "constant": false,
      "inputs": [
        {
          "name": "_productId",
          "type": "uint256"
        },
        {
          "name": "_newDesc",
          "type": "string"
        },
        {
          "name": "_newPrice",
          "type": "uint256"
        }
      ],
      "name": "updateProduct",
      "outputs": [],
      "payable": false,
      "stateMutability": "nonpayable",
      "type": "function"
    },
    {
      "constant": true,
      "inputs": [
        {
          "name": "_id",
          "type": "uint256"
        }
      ],
      "name": "productInfo",
      "outputs": [
        {
          "name": "",
          "type": "uint256"
        },
        {
          "name": "",
          "type": "string"
        },
        {
          "name": "",
          "type": "address"
        },
        {
          "name": "",
          "type": "uint256"
        }
      ],
      "payable": false,
      "stateMutability": "view",
      "type": "function"
    },
    {
      "constant": true,
      "inputs": [],
      "name": "getProducts",
      "outputs": [
        {
          "name": "",
          "type": "uint256[]"
        },
        {
          "name": "",
          "type": "string[]"
        },
        {
          "name": "",
          "type": "address[]"
        },
        {
          "name": "",
          "type": "uint256[]"
        }
      ],
      "payable": false,
      "stateMutability": "view",
      "type": "function"
    },
    {
      "constant": true,
      "inputs": [
        {
          "name": "_id",
          "type": "uint256"
        }
      ],
      "name": "isProductInHistory",
      "outputs": [
        {
          "name": "",
          "type": "bool"
        }
      ],
      "payable": false,
      "stateMutability": "view",
      "type": "function"
    },
    {
      "constant": false,
      "inputs": [
        {
          "name": "_productId",
          "type": "uint256"
        },
        {
          "name": "_stageDesc",
          "type": "string[]"
        },
        {
          "name": "_dates",
          "type": "string[]"
        }
      ],
      "name": "addNewHistory",
      "outputs": [],
      "payable": false,
      "stateMutability": "nonpayable",
      "type": "function"
    },
    {
      "constant": false,
      "inputs": [
        {
          "name": "_productId",
          "type": "uint256"
        },
        {
          "name": "_stageDesc",
          "type": "string[]"
        },
        {
          "name": "_dates",
          "type": "string[]"
        }
      ],
      "name": "addToHistory",
      "outputs": [
        {
          "name": "",
          "type": "bool"
        }
      ],
      "payable": false,
      "stateMutability": "nonpayable",
      "type": "function"
    },
    {
      "constant": true,
      "inputs": [
        {
          "name": "_id",
          "type": "uint256"
        }
      ],
      "name": "HistoryInfo",
      "outputs": [
        {
          "name": "",
          "type": "uint256"
        },
        {
          "name": "",
          "type": "string[]"
        },
        {
          "name": "",
          "type": "string[]"
        },
        {
          "name": "",
          "type": "address"
        }
      ],
      "payable": false,
      "stateMutability": "view",
      "type": "function"
    },
    {
      "constant": true,
      "inputs": [],
      "name": "getHistories",
      "outputs": [
        {
          "name": "",
          "type": "string[]"
        },
        {
          "name": "",
          "type": "string[][]"
        },
        {
          "name": "",
          "type": "string[][]"
        },
        {
          "name": "",
          "type": "address[]"
        }
      ],
      "payable": false,
      "stateMutability": "view",
      "type": "function"
    },
    {
      "constant": false,
      "inputs": [
        {
          "name": "_productsIds",
          "type": "uint256[]"
        },
        {
          "name": "_stageDesc",
          "type": "string"
        }
      ],
      "name": "addToStage",
      "outputs": [],
      "payable": false,
      "stateMutability": "nonpayable",
      "type": "function"
    },
    {
      "constant": true,
      "inputs": [
        {
          "name": "_id",
          "type": "uint256"
        }
      ],
      "name": "stageInfo",
      "outputs": [
        {
          "name": "",
          "type": "uint256"
        },
        {
          "name": "",
          "type": "uint256[]"
        },
        {
          "name": "",
          "type": "string"
        },
        {
          "name": "",
          "type": "address"
        }
      ],
      "payable": false,
      "stateMutability": "view",
      "type": "function"
    },
    {
      "constant": true,
      "inputs": [],
      "name": "getStages",
      "outputs": [
        {
          "name": "",
          "type": "uint256[]"
        },
        {
          "name": "",
          "type": "uint256[][]"
        },
        {
          "name": "",
          "type": "string[]"
        },
        {
          "name": "",
          "type": "address[]"
        }
      ],
      "payable": false,
      "stateMutability": "view",
      "type": "function"
    }
  ],
  "bytecode": "0x6080604052600060085560006009556000600a5534801561001f57600080fd5b506131c18061002f6000396000f3fe6080604052600436106100fc576000357c0100000000000000000000000000000000000000000000000000000000900463ffffffff168063243af193146101015780632a0e7b6214610141578063362342e41461016f5780633f1a51b8146101ac57806353488deb146101d55780636f77926b146101fe578063712611dd1461023b57806379655bd01461027857806384d5f424146102a6578063a2c0fb24146102cf578063b15247d91461030c578063bb119f6e14610335578063c29b2f2014610375578063d9db17de146103a3578063e52c2eca146103e3578063e63007fb14610420578063f6881ca614610449578063ffdc6a7a14610486575b600080fd5b34801561010d57600080fd5b5061012860048036036101239190810190612366565b6104c3565b6040516101389493929190612e15565b60405180910390f35b34801561014d57600080fd5b506101566106be565b6040516101669493929190612ae5565b60405180910390f35b34801561017b57600080fd5b5061019660048036036101919190810190612366565b610954565b6040516101a39190612da7565b60405180910390f35b3480156101b857600080fd5b506101d360048036036101ce9190810190612252565b610977565b005b3480156101e157600080fd5b506101fc60048036036101f7919081019061240e565b610a0f565b005b34801561020a57600080fd5b5061022560048036036102209190810190612229565b610ba4565b6040516102329190612c45565b60405180910390f35b34801561024757600080fd5b50610262600480360361025d9190810190612366565b610caa565b60405161026f9190612da7565b60405180910390f35b34801561028457600080fd5b5061028d610ccd565b60405161029d9493929190612b68565b60405180910390f35b3480156102b257600080fd5b506102cd60048036036102c8919081019061238f565b610ee3565b005b3480156102db57600080fd5b506102f660048036036102f19190810190612366565b61110b565b6040516103039190612da7565b60405180910390f35b34801561031857600080fd5b50610333600480360361032e9190810190612312565b61112e565b005b34801561034157600080fd5b5061035c60048036036103579190810190612366565b611300565b60405161036c9493929190612e68565b60405180910390f35b34801561038157600080fd5b5061038a6114da565b60405161039a9493929190612bc9565b60405180910390f35b3480156103af57600080fd5b506103ca60048036036103c59190810190612366565b6116e9565b6040516103da9493929190612dc2565b60405180910390f35b3480156103ef57600080fd5b5061040a60048036036104059190810190612366565b6119bc565b6040516104179190612da7565b60405180910390f35b34801561042c57600080fd5b50610447600480360361044291908101906122a6565b6119df565b005b34801561045557600080fd5b50610470600480360361046b919081019061238f565b611bc4565b60405161047d9190612c2a565b60405180910390f35b34801561049257600080fd5b506104ad60048036036104a89190810190612366565b611ceb565b6040516104ba9190612c2a565b60405180910390f35b600060608060006009548511151515610511576040517f08c379a000000000000000000000000000000000000000000000000000000000815260040161050890612ce7565b60405180910390fd5b610519611d43565b6002600087815260200190815260200160002060806040519081016040529081600082015481526020016001820180548060200260200160405190810160405280929190818152602001828054801561059157602002820191906000526020600020905b81548152602001906001019080831161057d575b50505050508152602001600282018054600181600116156101000203166002900480601f0160208091040260200160405190810160405280929190818152602001828054600181600116156101000203166002900480156106335780601f1061060857610100808354040283529160200191610633565b820191906000526020600020905b81548152906001019060200180831161061657829003601f168201915b505050505081526020016003820160009054906101000a900473ffffffffffffffffffffffffffffffffffffffff1673ffffffffffffffffffffffffffffffffffffffff1673ffffffffffffffffffffffffffffffffffffffff1681525050905080600001518160200151826040015183606001518292508191509450945094509450509193509193565b6060806060806060600580548060200260200160405190810160405280929190818152602001828054801561071257602002820191906000526020600020905b8154815260200190600101908083116106fe575b505050505090506060815160405190808252806020026020018201604052801561074b5781602001602082028038833980820191505090505b5090506060825160405190808252806020026020018201604052801561078557816020015b60608152602001906001900390816107705790505b509050606083516040519080825280602002602001820160405280156107bf57816020015b60608152602001906001900390816107aa5790505b509050606084516040519080825280602002602001820160405280156107f957816020015b60608152602001906001900390816107e45790505b5090506060855160405190808252806020026020018201604052801561082e5781602001602082028038833980820191505090505b50905060008090505b865181101561093b57610849816116e9565b829250819150898581518110151561085d57fe5b906020019060200201888681518110151561087457fe5b906020019060200201888781518110151561088b57fe5b90602001906020020188888151811015156108a257fe5b9060200190602002018473ffffffffffffffffffffffffffffffffffffffff1673ffffffffffffffffffffffffffffffffffffffff16815250849052849052848152505050505061090986828151811015156108fa57fe5b90602001906020020151611300565b90919250829250905050858281518110151561092157fe5b906020019060200201819052508080600101915050610837565b5083838383995099509950995050505050505090919293565b60058181548110151561096357fe5b906000526020600020016000915090505481565b6000600760008473ffffffffffffffffffffffffffffffffffffffff1673ffffffffffffffffffffffffffffffffffffffff1681526020019081526020016000209050818160000190805190602001906109d2929190611d82565b507fac6ec2f3cde22b84535f0bb70aa5a3d4e365af8847b387e4598b86913b19bab583604051610a029190612ab7565b60405180910390a1505050565b6001825110151515610a56576040517f08c379a0000000000000000000000000000000000000000000000000000000008152600401610a4d90612ca7565b60405180910390fd5b600081111515610a9b576040517f08c379a0000000000000000000000000000000000000000000000000000000008152600401610a9290612c87565b60405180910390fd5b600080600085815260200190815260200160002090503373ffffffffffffffffffffffffffffffffffffffff168160030160009054906101000a900473ffffffffffffffffffffffffffffffffffffffff1673ffffffffffffffffffffffffffffffffffffffff16141515610b45576040517f08c379a0000000000000000000000000000000000000000000000000000000008152600401610b3c90612d07565b60405180910390fd5b82816001019080519060200190610b5d929190611d82565b508181600201819055507f2502003daf5012f303aa6e68dcd311abe54ba3b5afe1c5721ae2ff76e3e85edf84604051610b969190612eb4565b60405180910390a150505050565b6060610bae611e02565b600760008473ffffffffffffffffffffffffffffffffffffffff1673ffffffffffffffffffffffffffffffffffffffff16815260200190815260200160002060206040519081016040529081600082018054600181600116156101000203166002900480601f016020809104026020016040519081016040528092919081815260200182805460018160011615610100020316600290048015610c925780601f10610c6757610100808354040283529160200191610c92565b820191906000526020600020905b815481529060010190602001808311610c7557829003601f168201915b50505050508152505090508060000151915050919050565b600181815481101515610cb957fe5b906000526020600020016000915090505481565b60608060608060606003805480602002602001604051908101604052809291908181526020018280548015610d2157602002820191906000526020600020905b815481526020019060010190808311610d0d575b5050505050905060608151604051908082528060200260200182016040528015610d5a5781602001602082028038833980820191505090505b50905060608251604051908082528060200260200182016040528015610d9457816020015b6060815260200190600190039081610d7f5790505b50905060608351604051908082528060200260200182016040528015610dce57816020015b6060815260200190600190039081610db95790505b50905060608451604051908082528060200260200182016040528015610e035781602001602082028038833980820191505090505b50905060008090505b8551811015610ecb57610e1e816104c3565b8292508191508885815181101515610e3257fe5b9060200190602002018886815181101515610e4957fe5b9060200190602002018887815181101515610e6057fe5b9060200190602002018888815181101515610e7757fe5b9060200190602002018473ffffffffffffffffffffffffffffffffffffffff1673ffffffffffffffffffffffffffffffffffffffff1681525084905284905284815250505050508080600101915050610e0c565b50848383839850985098509850505050505090919293565b60008310151515610f29576040517f08c379a0000000000000000000000000000000000000000000000000000000008152600401610f2090612d87565b60405180910390fd5b610f3283611ceb565b15156110b9576080604051908101604052808481526020018381526020018281526020013373ffffffffffffffffffffffffffffffffffffffff1681525060046000600a548152602001908152602001600020600082015181600001556020820151816001019080519060200190610fab929190611e16565b506040820151816002019080519060200190610fc8929190611e16565b5060608201518160030160006101000a81548173ffffffffffffffffffffffffffffffffffffffff021916908373ffffffffffffffffffffffffffffffffffffffff1602179055509050506005600a5490806001815401808255809150509060018203906000526020600020016000909192909190915055506006839080600181540180825580915050906001820390600052602060002001600090919290919091505550600a600081548092919060010191905055507f85df17fa01db593cbf895b0165756515b33fb56e9d3e9af14eb737541265b2366040516110ac90612d47565b60405180910390a1611106565b60006110c6848484611bc4565b90508015611104577f85df17fa01db593cbf895b0165756515b33fb56e9d3e9af14eb737541265b2366040516110fb90612d47565b60405180910390a15b505b505050565b60038181548110151561111a57fe5b906000526020600020016000915090505481565b6001825110151515611175576040517f08c379a000000000000000000000000000000000000000000000000000000000815260040161116c90612ca7565b60405180910390fd5b6000811115156111ba576040517f08c379a00000000000000000000000000000000000000000000000000000000081526004016111b190612cc7565b60405180910390fd5b60806040519081016040528060085481526020018381526020018281526020013373ffffffffffffffffffffffffffffffffffffffff16815250600080600854815260200190815260200160002060008201518160000155602082015181600101908051906020019061122e929190611e76565b506040820151816002015560608201518160030160006101000a81548173ffffffffffffffffffffffffffffffffffffffff021916908373ffffffffffffffffffffffffffffffffffffffff160217905550905050600160085490806001815401808255809150509060018203906000526020600020016000909192909190915055506008600081548092919060010191905055507fa0ecd9c452dc8233eea5ff75c2be4760d1cd2ff3edd236618fbe6403dc07c48a6008546040516112f49190612da7565b60405180910390a15050565b60006060600080600854851115151561134e576040517f08c379a000000000000000000000000000000000000000000000000000000000815260040161134590612c67565b60405180910390fd5b611356611ef6565b6000808781526020019081526020016000206080604051908101604052908160008201548152602001600182018054600181600116156101000203166002900480601f0160208091040260200160405190810160405280929190818152602001828054600181600116156101000203166002900480156114175780601f106113ec57610100808354040283529160200191611417565b820191906000526020600020905b8154815290600101906020018083116113fa57829003601f168201915b50505050508152602001600282015481526020016003820160009054906101000a900473ffffffffffffffffffffffffffffffffffffffff1673ffffffffffffffffffffffffffffffffffffffff1673ffffffffffffffffffffffffffffffffffffffff168152505090508060000151816020015160008089815260200190815260200160002060030160009054906101000a900473ffffffffffffffffffffffffffffffffffffffff1683604001518292509450945094509450509193509193565b6060806060806060600180548060200260200160405190810160405280929190818152602001828054801561152e57602002820191906000526020600020905b81548152602001906001019080831161151a575b50505050509050606081516040519080825280602002602001820160405280156115675781602001602082028038833980820191505090505b509050606082516040519080825280602002602001820160405280156115a157816020015b606081526020019060019003908161158c5790505b509050606083516040519080825280602002602001820160405280156115d65781602001602082028038833980820191505090505b5090506060845160405190808252806020026020018201604052801561160b5781602001602082028038833980820191505090505b50905060008090505b85518110156116d15761162681611300565b829250888581518110151561163757fe5b906020019060200201888681518110151561164e57fe5b906020019060200201888781518110151561166557fe5b906020019060200201888881518110151561167c57fe5b906020019060200201848152508473ffffffffffffffffffffffffffffffffffffffff1673ffffffffffffffffffffffffffffffffffffffff1681525084905284815250505050508080600101915050611614565b50838383839850985098509850505050505090919293565b60006060806000600a548511151515611737576040517f08c379a000000000000000000000000000000000000000000000000000000000815260040161172e90612d67565b60405180910390fd5b61173f611f35565b60046000878152602001908152602001600020608060405190810160405290816000820154815260200160018201805480602002602001604051908101604052809291908181526020016000905b82821015611849578382906000526020600020018054600181600116156101000203166002900480601f0160208091040260200160405190810160405280929190818152602001828054600181600116156101000203166002900480156118355780601f1061180a57610100808354040283529160200191611835565b820191906000526020600020905b81548152906001019060200180831161181857829003601f168201915b50505050508152602001906001019061178d565b50505050815260200160028201805480602002602001604051908101604052809291908181526020016000905b82821015611932578382906000526020600020018054600181600116156101000203166002900480601f01602080910402602001604051908101604052809291908181526020018280546001816001161561010002031660029004801561191e5780601f106118f35761010080835404028352916020019161191e565b820191906000526020600020905b81548152906001019060200180831161190157829003601f168201915b505050505081526020019060010190611876565b5050505081526020016003820160009054906101000a900473ffffffffffffffffffffffffffffffffffffffff1673ffffffffffffffffffffffffffffffffffffffff1673ffffffffffffffffffffffffffffffffffffffff1681525050905080600001518160200151826040015183606001518292508191509450945094509450509193509193565b6006818154811015156119cb57fe5b906000526020600020016000915090505481565b6001815110151515611a26576040517f08c379a0000000000000000000000000000000000000000000000000000000008152600401611a1d90612d27565b60405180910390fd5b60008251111515611a6c576040517f08c379a0000000000000000000000000000000000000000000000000000000008152600401611a6390612cc7565b60405180910390fd5b60806040519081016040528060095481526020018381526020018281526020013373ffffffffffffffffffffffffffffffffffffffff16815250600260006009548152602001908152602001600020600082015181600001556020820151816001019080519060200190611ae1929190611f74565b506040820151816002019080519060200190611afe929190611e76565b5060608201518160030160006101000a81548173ffffffffffffffffffffffffffffffffffffffff021916908373ffffffffffffffffffffffffffffffffffffffff160217905550905050600360095490806001815401808255809150509060018203906000526020600020016000909192909190915055506009600081548092919060010191905055507f4cc60a5ec8fb5bfb3ec397505a58e8cea4d91a7e74b9e01611588ad65c20bbe282604051611bb89190612b46565b60405180910390a15050565b600080600580549050905060008090505b81811015611cdd578560046000838152602001908152602001600020600001541415611cd057600060046000838152602001908152602001600020905080600101866000815181101515611c2557fe5b906020019060200201519080600181540180825580915050906001820390600052602060002001600090919290919091509080519060200190611c69929190611d82565b505080600201856000815181101515611c7e57fe5b906020019060200201519080600181540180825580915050906001820390600052602060002001600090919290919091509080519060200190611cc2929190611d82565b505060019350505050611ce4565b8080600101915050611bd5565b5060009150505b9392505050565b600080600090505b600680549050811015611d385782600682815481101515611d1057fe5b90600052602060002001541415611d2b576001915050611d3e565b8080600101915050611cf3565b50600090505b919050565b608060405190810160405280600081526020016060815260200160608152602001600073ffffffffffffffffffffffffffffffffffffffff1681525090565b828054600181600116156101000203166002900490600052602060002090601f016020900481019282601f10611dc357805160ff1916838001178555611df1565b82800160010185558215611df1579182015b82811115611df0578251825591602001919060010190611dd5565b5b509050611dfe9190611fc1565b5090565b602060405190810160405280606081525090565b828054828255906000526020600020908101928215611e65579160200282015b82811115611e64578251829080519060200190611e54929190611e76565b5091602001919060010190611e36565b5b509050611e729190611fe6565b5090565b828054600181600116156101000203166002900490600052602060002090601f016020900481019282601f10611eb757805160ff1916838001178555611ee5565b82800160010185558215611ee5579182015b82811115611ee4578251825591602001919060010190611ec9565b5b509050611ef29190611fc1565b5090565b608060405190810160405280600081526020016060815260200160008152602001600073ffffffffffffffffffffffffffffffffffffffff1681525090565b608060405190810160405280600081526020016060815260200160608152602001600073ffffffffffffffffffffffffffffffffffffffff1681525090565b828054828255906000526020600020908101928215611fb0579160200282015b82811115611faf578251825591602001919060010190611f94565b5b509050611fbd9190611fc1565b5090565b611fe391905b80821115611fdf576000816000905550600101611fc7565b5090565b90565b61200f91905b8082111561200b57600081816120029190612012565b50600101611fec565b5090565b90565b50805460018160011615610100020316600290046000825580601f106120385750612057565b601f0160209004906000526020600020908101906120569190611fc1565b5b50565b60006120668235613118565b905092915050565b600082601f830112151561208157600080fd5b813561209461208f82612f0f565b612ee2565b9150818183526020840193506020810190508360005b838110156120da57813586016120c08882612169565b8452602084019350602083019250506001810190506120aa565b5050505092915050565b600082601f83011215156120f757600080fd5b813561210a61210582612f37565b612ee2565b9150818183526020840193506020810190508385602084028201111561212f57600080fd5b60005b8381101561215f57816121458882612215565b845260208401935060208301925050600181019050612132565b5050505092915050565b600082601f830112151561217c57600080fd5b813561218f61218a82612f5f565b612ee2565b915080825260208301602083018583830111156121ab57600080fd5b6121b6838284613134565b50505092915050565b600082601f83011215156121d257600080fd5b81356121e56121e082612f8b565b612ee2565b9150808252602083016020830185838301111561220157600080fd5b61220c838284613134565b50505092915050565b6000612221823561312a565b905092915050565b60006020828403121561223b57600080fd5b60006122498482850161205a565b91505092915050565b6000806040838503121561226557600080fd5b60006122738582860161205a565b925050602083013567ffffffffffffffff81111561229057600080fd5b61229c858286016121bf565b9150509250929050565b600080604083850312156122b957600080fd5b600083013567ffffffffffffffff8111156122d357600080fd5b6122df858286016120e4565b925050602083013567ffffffffffffffff8111156122fc57600080fd5b612308858286016121bf565b9150509250929050565b6000806040838503121561232557600080fd5b600083013567ffffffffffffffff81111561233f57600080fd5b61234b858286016121bf565b925050602061235c85828601612215565b9150509250929050565b60006020828403121561237857600080fd5b600061238684828501612215565b91505092915050565b6000806000606084860312156123a457600080fd5b60006123b286828701612215565b935050602084013567ffffffffffffffff8111156123cf57600080fd5b6123db8682870161206e565b925050604084013567ffffffffffffffff8111156123f857600080fd5b6124048682870161206e565b9150509250925092565b60008060006060848603121561242357600080fd5b600061243186828701612215565b935050602084013567ffffffffffffffff81111561244e57600080fd5b61245a868287016121bf565b925050604061246b86828701612215565b9150509250925092565b61247e816130d0565b82525050565b600061248f82613012565b8084526020840193506124a183612fb7565b60005b828110156124d3576124b7868351612475565b6124c082613075565b91506020860195506001810190506124a4565b50849250505092915050565b60006124ea8261301d565b8084526020840193508360208202850161250385612fc4565b60005b8481101561253c57838303885261251e838351612629565b925061252982613082565b9150602088019750600181019050612506565b508196508694505050505092915050565b600061255882613028565b8084526020840193508360208202850161257185612fd1565b60005b848110156125aa57838303885261258c8383516126f2565b92506125978261308f565b9150602088019750600181019050612574565b508196508694505050505092915050565b60006125c68261303e565b808452602084019350836020820285016125df85612feb565b60005b848110156126185783830388526125fa838351612792565b9250612605826130a9565b91506020880197506001810190506125e2565b508196508694505050505092915050565b600061263482613033565b8084526020840193508360208202850161264d85612fde565b60005b84811015612686578383038852612668838351612792565b92506126738261309c565b9150602088019750600181019050612650565b508196508694505050505092915050565b60006126a282613054565b8084526020840193506126b483613005565b60005b828110156126e6576126ca868351612aa8565b6126d3826130c3565b91506020860195506001810190506126b7565b50849250505092915050565b60006126fd82613049565b80845260208401935061270f83612ff8565b60005b8281101561274157612725868351612aa8565b61272e826130b6565b9150602086019550600181019050612712565b50849250505092915050565b612756816130e2565b82525050565b60006127678261306a565b80845261277b816020860160208601613143565b61278481613176565b602085010191505092915050565b600061279d8261305f565b8084526127b1816020860160208601613143565b6127ba81613176565b602085010191505092915050565b6000601682527f50726f6475637420646f6573206e6f74206578697374000000000000000000006020830152604082019050919050565b6000602282527f4e6577207072696365206d75737420626520686967686572207468616e207a6560208301527f726f0000000000000000000000000000000000000000000000000000000000006040830152606082019050919050565b6000600c82527f496e76616c6964206e616d6500000000000000000000000000000000000000006020830152604082019050919050565b6000601e82527f5072696365206d75737420626520686967686572207468616e207a65726f00006020830152604082019050919050565b6000601c82527f50726f6475637420737461676520646f6573206e6f74206578697374000000006020830152604082019050919050565b6000602582527f4f6e6c7920746865206f776e65722063616e207570646174652074686520707260208301527f6f647563740000000000000000000000000000000000000000000000000000006040830152606082019050919050565b6000600c82527f4e616d6520696e76616c696400000000000000000000000000000000000000006020830152604082019050919050565b6000601f82527f50726f6475746f20617475616c697a61646f20636f6d20737563636573736f006020830152604082019050919050565b6000600e82527f486973746f7279207361766564210000000000000000000000000000000000006020830152604082019050919050565b6000601682527f486973746f727920646f6573206e6f74206578697374000000000000000000006020830152604082019050919050565b6000601182527f696e76616c69642070726f6475637449640000000000000000000000000000006020830152604082019050919050565b6000601182527f436f6e74612072656769737472616461210000000000000000000000000000006020830152604082019050919050565b612ab18161310e565b82525050565b6000604082019050612acc6000830184612475565b8181036020830152612add81612a71565b905092915050565b60006080820190508181036000830152612aff81876125bb565b90508181036020830152612b1381866124df565b90508181036040830152612b2781856124df565b90508181036060830152612b3b8184612484565b905095945050505050565b60006020820190508181036000830152612b608184612697565b905092915050565b60006080820190508181036000830152612b828187612697565b90508181036020830152612b96818661254d565b90508181036040830152612baa81856125bb565b90508181036060830152612bbe8184612484565b905095945050505050565b60006080820190508181036000830152612be38187612697565b90508181036020830152612bf781866125bb565b90508181036040830152612c0b8185612484565b90508181036060830152612c1f8184612697565b905095945050505050565b6000602082019050612c3f600083018461274d565b92915050565b60006020820190508181036000830152612c5f818461275c565b905092915050565b60006020820190508181036000830152612c80816127c8565b9050919050565b60006020820190508181036000830152612ca0816127ff565b9050919050565b60006020820190508181036000830152612cc08161285c565b9050919050565b60006020820190508181036000830152612ce081612893565b9050919050565b60006020820190508181036000830152612d00816128ca565b9050919050565b60006020820190508181036000830152612d2081612901565b9050919050565b60006020820190508181036000830152612d408161295e565b9050919050565b60006020820190508181036000830152612d60816129cc565b9050919050565b60006020820190508181036000830152612d8081612a03565b9050919050565b60006020820190508181036000830152612da081612a3a565b9050919050565b6000602082019050612dbc6000830184612aa8565b92915050565b6000608082019050612dd76000830187612aa8565b8181036020830152612de981866125bb565b90508181036040830152612dfd81856125bb565b9050612e0c6060830184612475565b95945050505050565b6000608082019050612e2a6000830187612aa8565b8181036020830152612e3c8186612697565b90508181036040830152612e50818561275c565b9050612e5f6060830184612475565b95945050505050565b6000608082019050612e7d6000830187612aa8565b8181036020830152612e8f818661275c565b9050612e9e6040830185612475565b612eab6060830184612aa8565b95945050505050565b6000604082019050612ec96000830184612aa8565b8181036020830152612eda81612995565b905092915050565b6000604051905081810181811067ffffffffffffffff82111715612f0557600080fd5b8060405250919050565b600067ffffffffffffffff821115612f2657600080fd5b602082029050602081019050919050565b600067ffffffffffffffff821115612f4e57600080fd5b602082029050602081019050919050565b600067ffffffffffffffff821115612f7657600080fd5b601f19601f8301169050602081019050919050565b600067ffffffffffffffff821115612fa257600080fd5b601f19601f8301169050602081019050919050565b6000602082019050919050565b6000602082019050919050565b6000602082019050919050565b6000602082019050919050565b6000602082019050919050565b6000602082019050919050565b6000602082019050919050565b600081519050919050565b600081519050919050565b600081519050919050565b600081519050919050565b600081519050919050565b600081519050919050565b600081519050919050565b600081519050919050565b600081519050919050565b6000602082019050919050565b6000602082019050919050565b6000602082019050919050565b6000602082019050919050565b6000602082019050919050565b6000602082019050919050565b6000602082019050919050565b60006130db826130ee565b9050919050565b60008115159050919050565b600073ffffffffffffffffffffffffffffffffffffffff82169050919050565b6000819050919050565b6000613123826130ee565b9050919050565b6000819050919050565b82818337600083830152505050565b60005b83811015613161578082015181840152602081019050613146565b83811115613170576000848401525b50505050565b6000601f19601f830116905091905056fea265627a7a72305820b256da0e9c986c6f8dc52dd2deca82e4473b41e77e7814ce3c9c539e3d9432666c6578706572696d656e74616cf50037",
  "source": "pragma solidity ^0.5.0;\npragma experimental ABIEncoderV2;\n\ncontract MyContract {\n\n    // evento para notificar o cliente que a conta foi atualizada\n    event userRegisted(address _addr, string newEmail);\n    // evento para notificar o cliente que o produto foi registrado\n    event productRegistered(uint id);\n    // evento para notificar o cliente de que a Etapa foi registrada\n    event StageRegistered(uint[]);\n    // evento para notificar o cliente de que um histrico foi registrado\n    event historyRegistered(string _msg);\n    // evento para notificar o cliente de que um produto foi atualizado\n    event productUpdated(uint _productId, string _msg);\n\n    // estrutura para manter dados do usurio\n    struct User {\n        string email;\n    }\n\n    // estrutura para registar o estagio de um produto\n    struct Stage {\n        uint id;\n        uint[] products;\n        string desc;\n        address owner;\n    }\n\n    // estrutura para manter dados do produto\n    struct Product {\n        uint id;\n        string desc;\n        uint price;\n        address owner;\n    }\n\n    // estrutura para manter dados de um histrico\n    struct History {\n        uint productId;\n        string[] stageDesc;\n        string[] dates;\n        address productOwner;\n    }\n\n    // mapeia um id a um produto\n    mapping (uint => Product) products;\n    uint[] public productsIds;\n\n    // mapeia um id a uma etapa\n    mapping(uint => Stage) stages;\n    uint[] public stagesIds;\n\n    mapping (uint => History) histories;\n    uint[] public historiesIds;\n    uint[] public productsInHistory;\n\n    // mapeia endereo do usurio a sua estrutura\n    mapping (address => User) users;\n\n    // state variables\n    uint256 private lastId = 0;\n    uint256 private stagesId = 0;\n    uint256 private historyId = 0;\n\n    // funo para cadastrar conta do usurio\n    function setUser(address _addr, string memory _email) public {\n        User storage user = users[_addr];\n        user.email = _email;\n\n        // notifica o cliente atravs do evento\n        emit userRegisted(_addr, \"Conta registrada!\");\n    }\n\n    // funo para resgatar dados do usurio\n    function getUser(address _addr) public view returns(string memory) {\n        User memory user = users[_addr];\n        return (user.email);\n    }\n\n    // funo para cadastrar um produto\n    function addProduct(string memory _desc, uint _price) public {\n        require(bytes(_desc).length >= 1, \"Invalid name\");\n        require(_price > 0, \"Price must be higher than zero\");\n\n        products[lastId] = Product(lastId, _desc, _price, msg.sender);\n        productsIds.push(lastId);\n        lastId++;\n        emit productRegistered(lastId);\n    }\n\n    function updateProduct(uint _productId, string memory _newDesc, uint _newPrice) public {\n        require(bytes(_newDesc).length >= 1, \"Invalid name\");\n        require(_newPrice > 0, \"New price must be higher than zero\");\n\n        Product storage prod = products[_productId];\n\n        require(prod.owner == msg.sender, \"Only the owner can update the product\");\n        prod.desc = _newDesc;\n        prod.price = _newPrice;\n\n        emit productUpdated(_productId, \"Produto atualizado com successo\");\n    }\n\n    // funo para resgatar info de um produto\n    function productInfo(uint _id) public view\n        returns(\n            uint,\n            string memory,\n            address,\n            uint\n        ) {\n            require(_id <= lastId, \"Product does not exist\");\n\n            Product memory product = products[_id];\n\n            return (\n                product.id,\n                product.desc,\n                products[_id].owner,\n                product.price\n            );\n    }\n\n    // funo que retorna todos os produtos de um usurio\n    function getProducts() public view returns(uint[] memory, string[] memory, address[] memory, uint[] memory) {\n\n        uint[] memory ids = productsIds;\n\n        uint[] memory idsProducts = new uint[](ids.length);\n        string[] memory names = new string[](ids.length);\n        address[] memory owners = new address[](ids.length);\n        uint[] memory prices = new uint[](ids.length);\n\n        for (uint i = 0; i < ids.length; i++) {\n            (idsProducts[i], names[i], owners[i], prices[i]) = productInfo(i);\n        }\n\n        return (idsProducts, names, owners, prices);\n    }\n\n    function isProductInHistory(uint _id) public view returns (bool) {\n        for (uint i = 0; i < productsInHistory.length; i++) {\n            if (productsInHistory[i] == _id)\n                return true;\n        }\n        return false;\n    }\n\n    // funo para adicionar o histrico de um produto\n    function addNewHistory(uint _productId, string[] memory _stageDesc, string[] memory _dates) public {\n        require(_productId >= 0, \"invalid productId\");\n\n        if (!isProductInHistory(_productId)) {\n            histories[historyId] = History(_productId, _stageDesc, _dates, msg.sender);\n            historiesIds.push(historyId);\n            productsInHistory.push(_productId);\n            historyId++;\n            emit historyRegistered(\"History saved!\");\n        } else {\n            bool added = addToHistory(_productId, _stageDesc, _dates);\n            if (added) {\n                emit historyRegistered(\"History saved!\");\n            }\n        }\n    }\n\n    function addToHistory(uint _productId, string[] memory _stageDesc, string[] memory _dates) public returns (bool) {\n        uint size = historiesIds.length;\n        for (uint i = 0; i < size; i++) {\n            if (histories[i].productId == _productId) {\n                History storage his = histories[i];\n                his.stageDesc.push(_stageDesc[0]);\n                his.dates.push(_dates[0]);\n                return true;\n            }\n        }\n        return false;\n    }\n\n    function HistoryInfo(uint _id) public view returns (uint, string[] memory, string[] memory, address) {\n        require(_id <= historyId, \"History does not exist\");\n\n        History memory his = histories[_id];\n        return (\n            his.productId,\n            his.stageDesc,\n            his.dates,\n            his.productOwner\n        );\n    }\n\n    function getHistories() public view returns (string[] memory, string[][] memory, string[][] memory, address[] memory) {\n        uint[] memory ids = historiesIds;\n\n        uint[] memory prodsIds = new uint[](ids.length);\n        string[] memory productsNames = new string[](ids.length);\n        string[][] memory stageDesc = new string[][](ids.length);\n        string[][] memory dates = new string[][](ids.length);\n        address[] memory addrs = new address[](ids.length);\n\n        for (uint i = 0; i < ids.length; i++) {\n            (prodsIds[i], stageDesc[i], dates[i], addrs[i]) = HistoryInfo(i);\n            (, productsNames[i], ,) = productInfo(prodsIds[i]);\n        }\n\n        return (productsNames, stageDesc, dates, addrs);\n    }\n\n    // funo para adicionar produtos  um estgio\n    function addToStage(uint[] memory _productsIds, string memory _stageDesc) public {\n        require(bytes(_stageDesc).length >= 1, \"Name invalid\");\n        require(_productsIds.length > 0, \"Price must be higher than zero\");\n\n        stages[stagesId] = Stage(stagesId, _productsIds, _stageDesc, msg.sender);\n        stagesIds.push(stagesId);\n        stagesId++;\n\n        emit StageRegistered(_productsIds);\n    }\n\n    // funo para resgatar info de um estgio\n    function stageInfo(uint _id) public view returns (uint, uint[] memory, string memory, address) {\n        require(_id <= stagesId, \"Product stage does not exist\");\n\n        Stage memory stage = stages[_id];\n        return (stage.id, stage.products, stage.desc, stage.owner);\n    }\n\n    // funo que retorna todos os produtos de um usurio\n    function getStages() public view returns (uint[] memory, uint[][] memory, string[] memory, address[] memory) {\n\n        uint[] memory ids = stagesIds;\n        uint[] memory idsStages = new uint[](ids.length);\n        uint[][] memory prods = new uint[][](ids.length);\n        string[] memory prods_desc = new string[](ids.length);\n        address[] memory owners = new address[](ids.length);\n\n        for(uint i = 0; i < ids.length; i++) {\n            (idsStages[i], prods[i], prods_desc[i], owners[i]) = stageInfo(i);\n        }\n\n        return (ids, prods, prods_desc, owners);\n    }\n\n}",
  "sourcePath": "/var/opt/iesb-blockchain/dapp/contracts/MyContract.sol",
  "compiler": {
    "name": "solc",
    "version": "0.5.0+commit.1d4f565a.Emscripten.clang"
  },
  "schemaVersion": "3.0.11",
  "updatedAt": "2019-07-06T00:34:10.470Z",
  "devdoc": {
    "methods": {}
  },
  "userdoc": {
    "methods": {}
  }
}